:020000040800F2
:100000006006002039020008750200087702000827
:10001000790200087B0200087D0200080000000051
:100020000000000000000000000000007F02000847
:100030008102000800000000830200088502000819
:10004000870200088702000887020008870200086C
:10005000870200088702000887020008870200085C
:10006000870200088702000887020008870200084C
:10007000870200088702000887020008870200083C
:10008000870200088702000887020008870200082C
:10009000870200088702000887020008870200081C
:1000A000870200088702000887020008870200080C
:1000B00087020008870200088702000887020008FC
:1000C00087020008870200088702000887020008EC
:1000D00087020008870200088702000887020008DC
:1000E00087020008870200088702000887020008CC
:1000F00087020008870200088702000887020008BC
:1001000087020008870200088702000887020008AB
:10011000870200088702000887020008870200089B
:10012000870200088702000887020008870200088B
:10013000870200088702000887020008870200087B
:10014000870200088702000887020008870200086B
:10015000870200088702000887020008870200085B
:10016000870200088702000887020008870200084B
:1001700087020008870200088702000800000000CC
:10018000870200088702000800F002F800F044F837
:1001900014A696E8000CB244B344DA4501D100F04D
:1001A0003BF8BAE80F000FA696E83000A5EB04056F
:1001B00004EB0607AAEB0704A7F101074FEA1515A0
:1001C0004FEA3414A4F10104AC4201D300F024F846
:1001D00013F0010F18BFFB1A43F0010300F001F800
:1001E000DBE71847BC020000CC02000070470000AB
:1001F0000023002400250026103A28BF78C1FBD830
:10020000520728BF30C148BF0B6070471FB500F0D0
:1002100039F91FBD10B510BD00F053F81146FFF7B6
:10022000F5FF00F089F800F071F803B4FFF7F2FF72
:1002300003BC00F079F8000016481749174B9942A3
:100240003CBF50F8042B41F8042BF8D314494FF06D
:1002500000028B4238BF43F8042BFAD3DFF8440086
:10026000016841F470010160BFF34F8FBFF36F8FDE
:100270000D480047FEE7FEE7FEE7FEE7FEE7FEE784
:10028000FEE7FEE7FEE7FEE708480949094A0A4B90
:1002900070470000B00400080000002000000020AB
:1002A0006006002088ED00E0890100086000002061
:1002B0006006002060020020600200207047704746
:1002C0007047754600F02CF8AE4605006946534667
:1002D00020F00700854618B020B5FFF7D5FFBDE830
:1002E00020404FF000064FF000074FF000084FF09D
:1002F000000BAC46ACE8C009ACE8C009ACE8C009EA
:10030000ACE8C00921F007018D46704710B50446DE
:10031000AFF300802046BDE81040FFF786BF000025
:10032000004870470000002001491820ABBEFEE7DE
:10033000260002007047000041F24C01C4F20201A5
:1003400008684FF2003C40F0010008600868CFF6F2
:10035000FF7C40F0020008600A68102042F01002A2
:10036000C4F600000A60D0F8F01321F03001C0F8A4
:10037000F013D0F8F02341F2140142F01002C4F659
:100380000001C0F8F02351F8142C22F4403241F857
:10039000142C51F8142C42F4803241F8142C51F8EA
:1003A000102C22F4807241F8102CD0F8F42322F0A3
:1003B0000402C0F8F42351F8082C22F4403241F82A
:1003C000082CD0F8FC2322F03002C0F8FC234FF0B8
:1003D0009042136803EA0C03136050F8042C40F6B3
:1003E000AA0302EA0C0240F8042C50F8042C1A4329
:1003F00040F8042C0268D2070DD00A6882F480729B
:100400000A60D0F8042482F00402C0F8042400BF7B
:100410000268D207FCD10268920708D5D0F80424FC
:1004200082F00402C0F8042402689207FCD4026837
:10043000520706D50A6882F480720A600268520781
:10044000FCD4026812070CD50A6842F480720A6074
:10045000D0F8042442F00402C0F804240268120711
:10046000FCD402689206C5D50A6822F480720A603C
:10047000D0F8042422F00402C0F804240268920692
:10048000FCD4B7E7F1EE100A4FF6FF71C0F2C031AD
:1004900020EA010040F04070E1EE100A70470000D1
:1004A000B00400080000002060060000F001000811
:040000050800018965
:00000001FF
