:020000040800F2
:10000000680600203902000875020008770200081F
:10001000790200087B0200087D0200080000000051
:100020000000000000000000000000007F02000847
:100030008102000800000000830200088502000819
:10004000870200088702000887020008870200086C
:10005000870200088702000887020008870200085C
:10006000870200088702000887020008870200084C
:10007000870200088702000887020008870200083C
:10008000870200088702000887020008870200082C
:10009000870200088702000887020008870200081C
:1000A000870200088702000887020008870200080C
:1000B00087020008870200088702000887020008FC
:1000C00087020008870200088702000887020008EC
:1000D00087020008870200088702000887020008DC
:1000E00087020008870200088702000887020008CC
:1000F00087020008870200088702000887020008BC
:1001000087020008870200088702000887020008AB
:10011000870200088702000887020008870200089B
:10012000870200088702000887020008870200088B
:10013000870200088702000887020008870200087B
:10014000870200088702000887020008870200086B
:10015000870200088702000887020008870200085B
:10016000870200088702000887020008870200084B
:1001700087020008870200088702000800000000CC
:10018000870200088702000800F002F800F044F837
:1001900014A696E8000CB244B344DA4501D100F04D
:1001A0003BF8BAE80F000FA696E83000A5EB04056F
:1001B00004EB0607AAEB0704A7F101074FEA1515A0
:1001C0004FEA3414A4F10104AC4201D300F024F846
:1001D00013F0010F18BFFB1A43F0010300F001F800
:1001E000DBE7184770020000800200007047000043
:1001F0000023002400250026103A28BF78C1FBD830
:10020000520728BF30C148BF0B6070471FB500F0D0
:1002100013F91FBD10B510BD00F053F81146FFF7DC
:10022000F5FF00F089F800F071F803B4FFF7F2FF72
:1002300003BC00F079F8000016481749174B9942A3
:100240003CBF50F8042B41F8042BF8D314494FF06D
:1002500000028B4238BF43F8042BFAD3DFF8440086
:10026000016841F470010160BFF34F8FBFF36F8FDE
:100270000D480047FEE7FEE7FEE7FEE7FEE7FEE784
:10028000FEE7FEE7FEE7FEE708480949094A0A4B90
:1002900070470000640400080000002000000020F7
:1002A0006806002088ED00E0890100086800002051
:1002B000680600206802002068020020704770472E
:1002C0007047754600F02CF8AE4605006946534667
:1002D00020F00700854618B020B5FFF7D5FFBDE830
:1002E00020404FF000064FF000074FF000084FF09D
:1002F000000BAC46ACE8C009ACE8C009ACE8C009EA
:10030000ACE8C00921F007018D46704710B50446DE
:10031000AFF300802046BDE81040FFF786BF000025
:10032000004870470000002001491820ABBEFEE7DE
:10033000260002007047000041F24C01C4F20201A5
:10034000086842F6184C40F01000086041F20000C6
:10035000C4F600000268C4F2010C22F440320260CC
:1003600002684FF61A4E42F400320260426ACFF63B
:10037000FF7E42F001024262826822F440328260D3
:10038000826842F440328260C26822F44032C26025
:100390004A6942F400624A615CF8181C4FF68F7299
:1003A00021F010014CF8181C40F69F71CCF8101089
:1003B00040F2E731CCF81410DCF80010CFF6FE72F2
:1003C0001140CCF80010DCF8001040F2600241F05F
:1003D0006001CCF80010DCF80010C2F2000241F01D
:1003E0000801CCF80010DCF8001021F00801CCF86E
:1003F0000010DCF8081041F00401CCF80810DCF81B
:100400002C1041F40041CCF82C104FF4FA71CCF8C8
:100410001C105CF8181C41F001014CF8181C01215B
:1004200010680B18A3F2E733734538BF49420844FC
:100430001060CCF81C00F3E7F1EE100A4FF6FF71E4
:10044000C0F2C03120EA010040F04070E1EE100A35
:1004500070470000640400080000002068060000E7
:04046000F00100089F
:040000050800018965
:00000001FF
