:020000040800F2
:10000000680600203902000875020008770200081F
:10001000790200087B0200087D0200080000000051
:100020000000000000000000000000007F02000847
:10003000810200080000000083020008411000084F
:10004000870200088702000887020008870200086C
:10005000870200088702000887020008870200085C
:10006000870200088702000887020008870200084C
:10007000870200088702000887020008870200083C
:10008000870200088702000887020008870200082C
:10009000870200088702000887020008870200081C
:1000A000870200088702000887020008870200080C
:1000B00087020008870200088702000887020008FC
:1000C00087020008870200088702000887020008EC
:1000D00087020008870200088702000887020008DC
:1000E00087020008870200088702000887020008CC
:1000F00087020008870200088702000887020008BC
:1001000087020008870200088702000887020008AB
:10011000870200088702000887020008870200089B
:10012000870200088702000887020008870200088B
:10013000870200088702000887020008870200087B
:10014000870200088702000887020008870200086B
:10015000870200088702000887020008870200085B
:10016000870200088702000887020008870200084B
:1001700087020008870200088702000800000000CC
:10018000870200088702000800F002F800F044F837
:1001900014A696E8000CB244B344DA4501D100F04D
:1001A0003BF8BAE80F000FA696E83000A5EB04056F
:1001B00004EB0607AAEB0704A7F101074FEA1515A0
:1001C0004FEA3414A4F10104AC4201D300F024F846
:1001D00013F0010F18BFFB1A43F0010300F001F800
:1001E000DBE71847CC100000DC100000704700006F
:1001F0000023002400250026103A28BF78C1FBD830
:10020000520728BF30C148BF0B6070471FB501F0CF
:100210001DF81FBD10B510BD00F053F81146FFF7D3
:10022000F5FF00F0CDFF00F071F803B4FFF7F2FF27
:1002300003BC00F079F8000016481749174B9942A3
:100240003CBF50F8042B41F8042BF8D314494FF06D
:1002500000028B4238BF43F8042BFAD3DFF8440086
:10026000016841F470010160BFF34F8FBFF36F8FDE
:100270000D480047FEE7FEE7FEE7FEE7FEE7FEE784
:10028000FEE7FEE7FEE7FEE708480949094A0A4B90
:1002900070470000C012000800000020000000208D
:1002A0006806002088ED00E0890100086800002051
:1002B000680600206802002068020020704770472E
:1002C0007047754600F02CF8AE4605006946534667
:1002D00020F00700854618B020B5FFF7D5FFBDE830
:1002E00020404FF000064FF000074FF000084FF09D
:1002F000000BAC46ACE8C009ACE8C009ACE8C009EA
:10030000ACE8C00921F007018D46704710B50446DE
:10031000AFF300802046BDE81040FFF786BF000025
:10032000004870470000002001491820ABBEFEE7DE
:1003300026000200704700002DE9F04747F23844DC
:10034000411EC4F200044FF4F8194FF0804818BF62
:100350000121012808BF4FF01F0908BF4FF4804852
:1003600054F8382C6FF48033012808BF6FF0010374
:1003700002EA030044F8380C54F8380C4FEA011A2A
:1003800040EA08006FEA09051026082744F8380CEF
:1003900020682840206006FA0AF0216800EA090077
:1003A00008432060012000F001FF54F8040C10EA1B
:1003B000080F384618BF40427F080644E8D120683D
:1003C00020EA0900206006FA0AF0216800EA090024
:1003D00008432060012000F0E9FE54F8040C10EA04
:1003E000080F0AD12068711C2840206001FA0AF029
:1003F000216800EA09000843206054F8380C20EA1C
:10040000080044F8380CBDE8F087000080B541F2E0
:100410004C00C4F20200016841F0010101604FF09C
:1004200090410A6842F440620A600C21C4F600015F
:100430000A6822F440620A600A6A42F020020A62F4
:10044000C16841F00051C1600220FFF775FF47F21B
:100450000041C4F20001C86B20F4E020C8630868C2
:1004600040F480200860086840F460100860086864
:1004700040F4803201200A60BDE8804000F096BE62
:1004800042F20840C4F2000001684907FCD46FF052
:1004900003010022431804313C291A61FAD1016892
:1004A00041F004010160704741F29000C4F2020083
:1004B00050F8381CC90005D450F8381C41F0805160
:1004C00040F8381C47F20001C4F2000150F8382C03
:1004D0000A68D20507D40A6842F480720A6000BF35
:1004E0000A68D205FCD5016821F0050101600168A8
:1004F00041F480310160016821F4803101600168BC
:10050000890703D4016841F00101F7E7016821F48C
:1005100040710160016841F48071016050F8381C3D
:1005200021F0805140F8381C50F8381C41F400711B
:1005300040F8381C7047000042F20440C4F200004A
:1005400050F8041C21F0010140F8041C016841F43A
:1005500070110160016821F070710160016821F47F
:1005600040310160016821F460410160016841F49B
:1005700080410160016841F070010160016821F46F
:10058000E0510160016841F4A0510160016821F06F
:1005900070010160016841F0400101604168890615
:1005A000FCD550F8041C21F01C0140F8041C50F844
:1005B000041C41F00C0140F8041C50F8041C21F00C
:1005C000600140F8041C50F8041C41F0400140F860
:1005D000041C50F8041C21F0800140F8041C50F861
:1005E000041C21F0020140F8041C50F8041C41F0E6
:1005F000010140F8041C00BF4168C907FCD000BFDE
:100600004168C906FCD5416841F00401416070476A
:100610002DE9F04381B08046007808B3002700BF81
:10062000444614F8019FFDB2A9F13A00B0FA80F0F7
:100630004209A9F12E00B0FA80F046094046314641
:100640002B4600F0C7F8B9F13A0F08BF08F10204D1
:10065000A05D28B104EB0608052D07F10107DFD3E3
:1006600001B0BDE8F0830000B0B541F24C00C4F227
:100670000200016840F6FF7241F00F0101604FF087
:1006800090400168C3F6C0721140016001684AF2EF
:10069000000CC8F22A0C41EA0C0101600821C4F6E2
:1006A0000001886940F6BB3340F03B408861C8696F
:1006B000CBF200031843C861086840F60A2E1040C8
:1006C00008600868CAF6082E40EA0C00086048680E
:1006D0004FF2F00C10404860D1F8F803C0F2F30C70
:1006E00000EA0C00C1F8F803D1F8F8034FF62042F5
:1006F00040EA0E00C1F8F80340F60000CFF6FF72A2
:10070000C4F600008358B02543F0BB1383504FF666
:100710002443CFF6FF73C458CBF6BB352C43C450EB
:10072000D1F8004404EA0C04C1F80044D1F80044B4
:1007300044EA0E05C1F800544FF60C41CFF6FF71A4
:10074000455805EA0C05455001684AF6802C6FF3C0
:10075000911101600168C0F2020C41EA0C010160D4
:1007600040F60041C4F600018C584BF20005CBF670
:10077000BB3525438D50CA5842F00B02CA508268DF
:100780006FF391128260826842EA0C028260C26852
:100790006FF39112C2600868002280B20860086896
:1007A000CAF6AA221043086040F62440C4F60000AE
:1007B000036843F0BB33036088684FF6FF739843C8
:1007C0008860886810438860C8686FF30F00C8604D
:1007D000B0BD000070B581B090F800C0ACF120044D
:1007E000DF2C00F291830FF20A004FF0000EDFE8D9
:1007F00014F0E8008B038B038B038B0360038B03E4
:100800008B0363036603690370038B0373038B031A
:100810007603E000E000E000E000E000E000E0003F
:10082000E000E000E0008B038B038B038B038B0362
:100830008B038B038B038B038B038B038B038B0348
:100840008B038B038B038B038B038B038B038B0338
:100850008B038B038B038B038B038B038B038B0328
:100860008B038B038B038B038B038B038B038B0318
:100870008B038B038B038B038B0379038B038B031A
:100880008B038B038B038B038B038B037C037F0313
:100890008B038B038B038B038B038B038B038B03E8
:1008A0008B038B038B038B038B038B038B038B03D8
:1008B0008B038B038B038B038B038B038B038B03C8
:1008C0008B038B038B038B038B038B038B038B03B8
:1008D0008B038B038B038B038B038B038B038B03A8
:1008E0008B038B038B038B038B038B038B038B0398
:1008F0008B038B038B038B038B038B038B038B0388
:100900008B038B038B038B038B038B038B038B0377
:100910008B0382038B038B038B038B0385038B0376
:100920008B038B038B038B038B038B038B038B0357
:100930008B038B038B038B038B038B038B038B0347
:100940008B038B038B038B038B038B038B038B0337
:100950008B038B038B038B038B038B038B038B0327
:100960008B038B038B038B038B038B038B038B0317
:100970008B038B038B038B038B038B038B038B0307
:100980008B038B038B038B038B038B038B038B03F7
:100990008B038B038B038B038B038B038B038B03E7
:1009A0008B038B038B038B038B038B038B038B03D7
:1009B000880341F29A20C0F6000000EB4C0030F8AA
:1009C00060EC002918BF4EF0020E002A18BF4EF04E
:1009D000200E1FFA8EF00C210022EC466FF0030E61
:1009E000CCB220FA04F404F00F040CF802400132F7
:1009F000042A5EFA81F1F3D142F21440C4F20000FD
:100A000050F80C1C4907FBD4052B00F24A82DFE8A2
:100A100013F006006200C20022018701F80101689C
:100A20004FF6E772CFF63F721140016081681140C6
:100A300081600169114001618169114081619DF806
:100A400000209DF801309DF802409DF803100668D3
:100A500002F0010C02F0020E02F0040502F008029E
:100A6000324342EA8E5242EA0C1242EA05520260D6
:100A7000826803F0010C03F0020603F0040503F0A2
:100A800008031A4342EA865242EA0C1242EA05522D
:100A90008260056904F0010204F0020304F0040618
:100AA00004F00804254345EA835343EA021242EA6C
:100AB00006520261856901F0010201F0020301F0B2
:100AC000040601F00801294341EA835141EA021179
:100AD00041EA0651E4E101684CF69F72CFF6FF72DD
:100AE000114001608168114081600169114001611C
:100AF0008169114081619DF800209DF801309DF8C9
:100B000002609DF80310056802F0020402F0010C77
:100B100045EA043402F0040E44EA8C1502F008029F
:100B200045EA8E2545EA82020260826803F00205EA
:100B300003F0010C42EA053203F0040442EA8C128D
:100B400003F0080342EA842242EA830282600469D5
:100B500006F0020306F0010244EA033306F004053E
:100B600043EA821206F0080642EA852242EA860239
:100B70000261856901F0020301F0010245EA0333D5
:100B800001F0040643EA821201F0080142EA8622DB
:100B900042EA810184E1016843F6FF72CCF6FF72FC
:100BA000114001608168114081600169114001615B
:100BB0008169114081619DF800309DF80160DD037D
:100BC0009DF802209DF803101FFA85FC056803F0CC
:100BD000020445EA047403F0040E44EA0C0503F031
:100BE000080345EA8E6545EAC3230360F3031FFA51
:100BF00083FC836806F0020543EA057306F00404EB
:100C000043EA0C0306F0080643EA846343EAC6237A
:100C100083600469D30302F002069BB244EA0676BD
:100C200002F00405334302F0080243EA856343EA15
:100C3000C22202618569CA0301F0020392B245EA49
:100C4000037301F004061A4301F0080142EA8662C8
:100C500042EAC12124E1016821F04041016041687C
:100C600021F003014160816821F040418160C16849
:100C700021F00301C160016921F040410161416936
:100C800021F003014161816921F040418161C16925
:100C900021F00301C1619DF800204FF0804101EA7D
:100CA000C263066843EAC2733343036002F002037F
:100CB000C2F3800246681A44324342609DF8012024
:100CC000866801EAC26343EAC2733343836002F079
:100CD0000203C2F38002C6681A443243C2609DF820
:100CE0000220066901EAC26343EAC2733343036127
:100CF00002F00203C2F3800246691A4432434261A1
:100D00009DF80320836901EAC26141EAC271194377
:100D1000816102F00201C2F38002C36911446DE0F7
:100D2000016821F040710160416821F00C014160CF
:100D3000816821F040718160C16821F00C01C160BF
:100D4000016921F040710161416921F00C014161AB
:100D5000816921F040718161C16921F00C01C1619B
:100D60009DF80020036802F0040602F0020143EA45
:100D7000865343EA01610160042101EA5203466897
:100D800062F3C30343EA060242609DF801208668CD
:100D900002F0040502F0020346EA855646EA0363C0
:100DA000836001EA5203C66862F3C30343EA0602A2
:100DB000C2609DF80220066902F0040502F00203F9
:100DC00046EA855646EA0363036101EA520346692F
:100DD00062F3C30343EA060242619DF80320866979
:100DE00002F0040502F0020346EA855646EA036370
:100DF000836101EA5201C36962F3C3011943C1610E
:100E00004FE001684FF6FF42CFF6FD32114001601E
:100E1000816811408160016911400161816911405F
:100E200081619DF800109DF801209DF802309DF829
:100E30000360056801F0060401F0010C45EAC415E1
:100E400001F0080145EA4C4545EAC151016084685A
:100E500002F0060502F0010144EAC51502F008029D
:100E600045EA414141EAC2518160056903F0060249
:100E700003F0010145EAC21203F0080342EA4141CE
:100E800041EAC3510161836906F0060206F00101DF
:100E900043EAC21206F0080642EA414141EAC6515D
:100EA000816150F80C1C41F0040140F80C1C01B0A9
:100EB00070BD4FF4334E84E54FF0280E81E54FF0BE
:100EC000110E7EE54AF21400CFF6FF7000F1C90E54
:100ED00077E54AF2140E74E54FF4204E71E54FF0B9
:100EE000C00E6EE54FF4734E6BE54BF2102E68E5C5
:100EF00042F2102E65E54FF46C4E62E546F2840E28
:100F00005FE54FF6DD7E5CE5ACF14100192808D8BD
:100F100041F26620C0F6000000EB4C0030F882EC95
:100F200001E04FF0000EACF1610019283FF649AD29
:100F300041F26620C0F6000000EB4C0030F8C2EC35
:100F40003FE5000042F22440C4F2000050F81C1CAF
:100F50004907FBD401684FF6FF62CFF6FF521140FC
:100F6000016081681140816040F26401C2F20001B9
:100F70000A7891F801C0836842F0080243F4807354
:100F800083600A70026842F4807202604CF00A02C8
:100F90004A70816841F000718160016841F0007120
:100FA000016050F81C1C41F0040140F81C1C704703
:100FB00041F24C00C4F20200016841F012010160EC
:100FC00040F20040C4F60000016821F030010160E9
:100FD000016841F010010160816821F030018160F9
:100FE000816841F030018160416821F00401416075
:100FF000C16821F03001C160D0F8001C21F44031FB
:10100000C0F8001CD0F8001C41F48031C0F8001C6E
:1010100041F20800C4F60000016821F4403101608B
:10102000016841F44031016050F8041C21F48071E2
:1010300040F8041C416821F44031416070470000D1
:1010400040F26000C2F200000168013101607047A7
:101050004EF2100043F67F02CEF200000021C0F2F3
:1010600001020160426081604EF62351CEF2000120
:1010700010220A70016841F002010160016841F02C
:1010800004010160016841F0010101607047000046
:1010900042F20001C4F20201086820F00700086073
:1010A0000A6841F2000042F00202C4F202000A6043
:1010B000016841F48071016001684905FCD541680F
:1010C00021F0F8514160416841F080514160016870
:1010D00021F08071016000BF01688901FCD4C16802
:1010E000142221F00301C160C16841F00201C16016
:1010F000C16862F30E21C160C168012262F306116A
:10110000C160C16821F0C061C160C16841F08071F7
:10111000C160016841F08071016000BF0168890110
:10112000FCD5816821F003018160816841F00301F1
:10113000816000BF816801F00C010C29FAD181683F
:1011400021F0F0018160816821F4E06181608168B3
:1011500021F460518160016821F08061016000BF6D
:1011600001684901FCD4016921F4FE410161016972
:1011700041F4C0510161016941F40031016101692B
:1011800041F480310161016841F08061016000BF7C
:1011900001684901FCD5D0F8881021F44001C0F85D
:1011A0008810016E41F400110166704708B100BF5C
:1011B000FEE740F26000C2F20000002101607047CB
:1011C00040F6144447F20445C4F60004C4F2000596
:1011D000FFF75EFFFFF73CFFFFF7EAFEFFF744FA79
:1011E000FFF762F9FFF7A8F9FFF74AF915A0FFF733
:1011F0000FFAFFF7A7FEFFF709F940F201160020EA
:10120000C0F21006216841F001012160296B00291C
:10121000FCD4A0FB0612811A02EB5101CA0A120388
:10122000A2EBD121411A29612968471C41F0020033
:1012300028600520FFF7BAFF206820F00100206039
:101240003846DFE74D4F4E4F00000000F1EE100A28
:101250004FF6FF71C0F2C03120EA010040F040704B
:10126000E1EE100A704700FE1467001D1447009D50
:10127000009C003F00FA1400005341980019485A9E
:10128000095A005F00FC015F01FC00AF1404005B21
:10129000C018815AC9005800C005005F004200F51F
:1012A000006700EA00AF00BF004600FF00EF00004B
:1012B000C01200080000002068060000F0010008CD
:040000050800018965
:00000001FF
