:020000040800F2
:10000000680600203902000875020008770200081F
:10001000790200087B0200087D0200080000000051
:100020000000000000000000000000007F02000847
:10003000810200080000000083020008F1030008AC
:10004000870200088702000887020008870200086C
:10005000870200088702000887020008870200085C
:10006000870200088702000887020008870200084C
:10007000870200088702000887020008870200083C
:10008000870200088702000887020008870200082C
:10009000870200088702000887020008870200081C
:1000A000870200088702000887020008870200080C
:1000B00087020008870200088702000887020008FC
:1000C00087020008870200088702000887020008EC
:1000D00087020008870200088702000887020008DC
:1000E00087020008870200088702000887020008CC
:1000F00087020008870200088702000887020008BC
:1001000087020008870200088702000887020008AB
:10011000870200088702000887020008870200089B
:10012000870200088702000887020008870200088B
:10013000870200088702000887020008870200087B
:10014000870200088702000887020008870200086B
:10015000870200088702000887020008870200085B
:10016000870200088702000887020008870200084B
:1001700087020008870200088702000800000000CC
:10018000870200088702000800F002F800F044F837
:1001900014A696E8000CB244B344DA4501D100F04D
:1001A0003BF8BAE80F000FA696E83000A5EB04056F
:1001B00004EB0607AAEB0704A7F101074FEA1515A0
:1001C0004FEA3414A4F10104AC4201D300F024F846
:1001D00013F0010F18BFFB1A43F0010300F001F800
:1001E000DBE71847F402000004030000704700003A
:1001F0000023002400250026103A28BF78C1FBD830
:10020000520728BF30C148BF0B6070471FB500F0D0
:1002100056F91FBD10B510BD00F053F81146FFF799
:10022000F5FF00F019F900F071F803B4FFF7F2FFE1
:1002300003BC00F079F8000016481749174B9942A3
:100240003CBF50F8042B41F8042BF8D314494FF06D
:1002500000028B4238BF43F8042BFAD3DFF8440086
:10026000016841F470010160BFF34F8FBFF36F8FDE
:100270000D480047FEE7FEE7FEE7FEE7FEE7FEE784
:10028000FEE7FEE7FEE7FEE708480949094A0A4B90
:1002900070470000E8040008000000200000002073
:1002A0006806002088ED00E0890100086800002051
:1002B000680600206802002068020020704770472E
:1002C0007047754600F02CF8AE4605006946534667
:1002D00020F00700854618B020B5FFF7D5FFBDE830
:1002E00020404FF000064FF000074FF000084FF09D
:1002F000000BAC46ACE8C009ACE8C009ACE8C009EA
:10030000ACE8C00921F007018D46704710B50446DE
:10031000AFF300802046BDE81040FFF786BF000025
:10032000004870470000002001491820ABBEFEE7DE
:10033000260002007047000041F21400C4F60000DD
:10034000016881F4807101607047000041F24C0047
:10035000C4F20200016841F01201016040F2004065
:10036000C4F60000016821F030010160016841F02D
:1003700010010160816821F030018160816841F0E5
:1003800030018160416821F004014160C16821F0C1
:100390003001C160D0F8001C21F44031C0F8001CCD
:1003A000D0F8001C41F48031C0F8001C41F2080074
:1003B000C4F60000016821F440310160016841F495
:1003C0004031016050F8041C21F4807140F8041C95
:1003D000416821F4403141607047000040F2144010
:1003E000C4F60000016881F004010160704700005C
:1003F00040F26000C2F20000016801310160704704
:100400004EF21000CEF20000002140F2E73201600F
:10041000426081604EF62351CEF2000110220A7034
:10042000016841F002010160016821F004010160EE
:10043000016841F0010101607047000040F2600175
:10044000C2F2000128B10A6800BF0B689B1A834200
:10045000FAD300200860704740F2640141F20000C6
:10046000C2F200010122C4F202000A60016841F0F8
:1004700001010160816821F0030181600168890741
:10048000FCD5016821F0F0010160016841F07001C4
:100490000160016841F00801016000BF016889073F
:1004A000FCD5FFF753FFFFF7ABFF00BFFFF796FF49
:1004B000FFF742FF4FF47A70FFF7C0FFF6E7F1EE67
:1004C000100A4FF6FF71C0F2C03120EA010040F07F
:1004D0004070E1EE100A7047E804000800000020B8
:0804E00068060000F0010008AD
:040000050800018965
:00000001FF
