:020000040800F2
:100000006006002039020008750200087702000827
:10001000790200087B0200087D0200080000000051
:100020000000000000000000000000007F02000847
:100030008102000800000000830200088502000819
:10004000870200088702000887020008870200086C
:10005000870200088702000887020008870200085C
:10006000870200088702000887020008870200084C
:10007000870200088702000887020008870200083C
:10008000870200088702000887020008870200082C
:10009000870200088702000887020008870200081C
:1000A000870200088702000887020008870200080C
:1000B00087020008870200088702000887020008FC
:1000C00087020008870200088702000887020008EC
:1000D00087020008870200088702000887020008DC
:1000E00087020008870200088702000887020008CC
:1000F00087020008870200088702000887020008BC
:1001000087020008870200088702000887020008AB
:10011000870200088702000887020008870200089B
:10012000870200088702000887020008870200088B
:10013000870200088702000887020008870200087B
:10014000870200088702000887020008870200086B
:10015000870200088702000887020008870200085B
:10016000870200088702000887020008870200084B
:1001700087020008870200088702000800000000CC
:10018000870200088702000800F002F800F044F837
:1001900014A696E8000CB244B344DA4501D100F04D
:1001A0003BF8BAE80F000FA696E83000A5EB04056F
:1001B00004EB0607AAEB0704A7F101074FEA1515A0
:1001C0004FEA3414A4F10104AC4201D300F024F846
:1001D00013F0010F18BFFB1A43F0010300F001F800
:1001E000DBE718470C0500001C0500007047000005
:1001F0000023002400250026103A28BF78C1FBD830
:10020000520728BF30C148BF0B6070471FB500F0D0
:1002100062FA1FBD10B510BD00F053F81146FFF78C
:10022000F5FF00F051FA00F071F803B4FFF7F2FFA8
:1002300003BC00F079F8000016481749174B9942A3
:100240003CBF50F8042B41F8042BF8D314494FF06D
:1002500000028B4238BF43F8042BFAD3DFF8440086
:10026000016841F470010160BFF34F8FBFF36F8FDE
:100270000D480047FEE7FEE7FEE7FEE7FEE7FEE784
:10028000FEE7FEE7FEE7FEE708480949094A0A4B90
:100290007047000000070008000000200000002058
:1002A0006006002088ED00E0890100086000002061
:1002B0006006002060020020600200207047704746
:1002C0007047754600F02CF8AE4605006946534667
:1002D00020F00700854618B020B5FFF7D5FFBDE830
:1002E00020404FF000064FF000074FF000084FF09D
:1002F000000BAC46ACE8C009ACE8C009ACE8C009EA
:10030000ACE8C00921F007018D46704710B50446DE
:10031000AFF300802046BDE81040FFF786BF000025
:10032000004870470000002001491820ABBEFEE7DE
:10033000260002007047000042F20840C4F20000AC
:1003400001684907FCD46FF003010022431804310F
:100350003C291A61FAD1016841F00401016070473B
:1003600041F29000C4F2020050F8381CC90005D4D4
:1003700050F8381C41F0805140F8381C47F2000119
:10038000C4F2000150F8382C0A68D20507D40A6874
:1003900042F480720A6000BF0A68D205FCD5016889
:1003A00021F005010160016841F4803101600168BC
:1003B00021F4803101600168890703D4016841F0AC
:1003C0000101F7E7016821F440710160016841F41F
:1003D00080710160016841F40041016050F8381CEF
:1003E00021F0805140F8381C50F8381C41F400715D
:1003F00040F8381C7047000042F20440C4F200008C
:1004000050F8041C21F0010140F8041C016841F47B
:1004100070110160016821F070710160016821F4C0
:1004200040310160016821F460410160016841F4DC
:1004300080410160016841F070010160016821F4B0
:10044000E0510160016841F4E0510160016821F070
:1004500070010160016841F0400101604168890656
:10046000FCD550F8041C21F01C0140F8041C50F885
:10047000041C41F00C0140F8041C50F8041C21F04D
:10048000600140F8041C50F8041C41F0400140F8A1
:10049000041C50F8041C21F0800140F8041C50F8A2
:1004A000041C21F0020140F8041C50F8041C41F027
:1004B000010140F8041C00BF4168C907FCD000BF1F
:1004C0004168C906FCD5416841F0040141607047AC
:1004D00042F20840C4F2000001684907FCD449F226
:1004E0005001C9F24001C1600121016147F2680178
:1004F000CEF280014161032181614FF48001C1612D
:1005000000214CF20802016242628162016841F0FE
:100510000401016001680907FCD5704710B542F27B
:100520000844C4F2000400F017F8FFF719FFFFF7C2
:1005300063FF00BF20684007FCD404F108001021CD
:10054000002200BF013940F8042FFBD1206840F0A1
:100550000400206010BD0000B0B541F24C00C4F2B0
:100560000200016840F6FF7241F00F0101604FF098
:1005700090400168C3F6C0721140016001684AF200
:10058000000CC8F22A0C41EA0C0101600821C4F6F3
:100590000001886940F6BB3340F03B408861C86980
:1005A000CBF200031843C861086840F60A2E1040D9
:1005B00008600868CAF6082E40EA0C00086048681F
:1005C0004FF2F00C10404860D1F8F803C0F2F30C81
:1005D00000EA0C00C1F8F803D1F8F8034FF6204206
:1005E00040EA0E00C1F8F80340F60000CFF6FF72B3
:1005F000C4F600008358B02543F0BB1383504FF678
:100600002443CFF6FF73C458CBF6BB352C43C450FC
:10061000D1F8004404EA0C04C1F80044D1F80044C5
:1006200044EA0E05C1F800544FF60C41CFF6FF71B5
:10063000455805EA0C05455001684AF6802C6FF3D1
:10064000911101600168C0F2020C41EA0C010160E5
:1006500040F60041C4F600018C584BF20005CBF681
:10066000BB3525438D50CA5842F00B02CA508268F0
:100670006FF391128260826842EA0C028260C26863
:100680006FF39112C2600868002280B208600868A7
:10069000CAF6AA2210430860086A086240F624409D
:1006A000C4F60000036843F0BB33036088684FF66C
:1006B000FF7398438860886810438860C8686FF348
:1006C0000F00C860B0BD0000FFF728FFFFF734FE41
:1006D000FFF7FEFEFEE7F1EE100A4FF6FF71C0F2E3
:1006E000C03120EA010040F04070E1EE100A70478E
:1006F000000700080000002060060000F00100086C
:040000050800018965
:00000001FF
