:020000040800F2
:100000000006002089010008C5010008C70100089A
:10001000C9010008CB010008CD0100080000000064
:10002000000000000000000000000000CF010008F8
:10003000D101000800000000D3010008D50100082C
:10004000D7010008D7010008D7010008D701000830
:10005000D7010008D7010008D7010008D701000820
:10006000D7010008D7010008D7010008D701000810
:10007000D7010008D7010008D7010008D701000800
:10008000D7010008D7010008D7010008D7010008F0
:10009000D7010008D7010008D7010008D7010008E0
:1000A000D7010008D7010008D7010008D7010008D0
:1000B000D7010008D7010008D7010008D7010008C0
:1000C000D7010008D7010008D7010008D7010008B0
:1000D000D7010008D7010008D7010008D7010008A0
:1000E000D7010008D7010008D7010008D701000890
:1000F000D7010008D7010008D7010008D701000880
:10010000D7010008D7010008D7010008D70100086F
:10011000D7010008D7010008D7010008D70100085F
:10012000D7010008D7010008D7010008D70100084F
:10013000D7010008D7010008D7010008D70100083F
:10014000D7010008D7010008D7010008D70100082F
:10015000D7010008D7010008D7010008D70100081F
:10016000D7010008D7010008D7010008D70100080F
:10017000D7010008D7010008D701000800000000DF
:10018000D7010008D701000816481749174B9942B4
:100190003CBF50F8042B41F8042BF8D314494FF01E
:1001A00000028B4238BF43F8042BFAD3DFF8440037
:1001B000016841F470010160BFF34F8FBFF36F8F8F
:1001C0000D480047FEE7FEE7FEE7FEE7FEE7FEE735
:1001D000FEE7FEE7FEE7FEE708480949094A0A4B41
:1001E00070470000380300080000002000000020D5
:1001F0000006002088ED00E0150200080000002045
:100200000006002000020020000200207047704716
:10021000704700004548C16C41F00201C164434889
:10022000C16C41F01001C1644048C16C41F0010152
:10023000C1643F48016821F0300141F010010160C4
:10024000416821F004014160C16821F03001C160C2
:100250003848016821F4403141F48031016041683F
:1002600021F480714160C16821F44031C1604FF0D8
:100270009040016821F0030121F00C0121F03001D0
:1002800021F0C00121F440610160C16821F0030147
:1002900021F00C0121F0300121F0C00121F4406176
:1002A00041F0020141F0080141F0200141F08001DC
:1002B00041F40061C160FFE74FF09040016911F027
:1002C0002001202915D04FF09040016911F008015C
:1002D000082915D04FF09040016911F0040104295C
:1002E00017D04FF09040016911F00201022916D099
:1002F000E2E74FF000030E4843610E484361DBE73D
:100300004FF480734FF00404094844610948436185
:10031000D2E70848436983F480734361CCE704481B
:10032000436983F004034361C6E700000010024004
:08033000000400480010004821
:0400000508000215D8
:00000001FF
