:020000040800F2
:100000006006002039020008750200087702000827
:10001000790200087B0200087D0200080000000051
:100020000000000000000000000000007F02000847
:100030008102000800000000830200088502000819
:10004000870200088702000887020008870200086C
:10005000870200088702000887020008870200085C
:10006000870200088702000887020008870200084C
:10007000870200088702000887020008870200083C
:10008000870200088702000887020008870200082C
:10009000870200088702000887020008870200081C
:1000A000870200088702000887020008870200080C
:1000B00087020008870200088702000887020008FC
:1000C00087020008870200088702000887020008EC
:1000D00087020008870200088702000887020008DC
:1000E00087020008870200088702000887020008CC
:1000F00087020008870200088702000887020008BC
:1001000087020008870200088702000887020008AB
:10011000870200088702000887020008870200089B
:10012000870200088702000887020008870200088B
:10013000870200088702000887020008870200087B
:10014000870200088702000887020008870200086B
:10015000870200088702000887020008870200085B
:10016000870200088702000887020008870200084B
:1001700087020008870200088702000800000000CC
:10018000870200088702000800F002F800F044F837
:1001900014A696E8000CB244B344DA4501D100F04D
:1001A0003BF8BAE80F000FA696E83000A5EB04056F
:1001B00004EB0607AAEB0704A7F101074FEA1515A0
:1001C0004FEA3414A4F10104AC4201D300F024F846
:1001D00013F0010F18BFFB1A43F0010300F001F800
:1001E000DBE7184738100000481000007047000097
:1001F0000023002400250026103A28BF78C1FBD830
:10020000520728BF30C148BF0B6070471FB500F0D0
:10021000D3FF1FBD10B510BD00F053F81146FFF716
:10022000F5FF00F09DFE00F071F803B4FFF7F2FF58
:1002300003BC00F079F8000016481749174B9942A3
:100240003CBF50F8042B41F8042BF8D314494FF06D
:1002500000028B4238BF43F8042BFAD3DFF8440086
:10026000016841F470010160BFF34F8FBFF36F8FDE
:100270000D480047FEE7FEE7FEE7FEE7FEE7FEE784
:10028000FEE7FEE7FEE7FEE708480949094A0A4B90
:10029000704700002C120008000000200000002021
:1002A0006006002088ED00E0890100086000002061
:1002B0006006002060020020600200207047704746
:1002C0007047754600F02CF8AE4605006946534667
:1002D00020F00700854618B020B5FFF7D5FFBDE830
:1002E00020404FF000064FF000074FF000084FF09D
:1002F000000BAC46ACE8C009ACE8C009ACE8C009EA
:10030000ACE8C00921F007018D46704710B50446DE
:10031000AFF300802046BDE81040FFF786BF000025
:10032000004870470000002001491820ABBEFEE7DE
:10033000260002007047000042F20840C4F20000AC
:1003400001684907FCD46FF003010022431804310F
:100350003C291A61FAD1016841F00401016070473B
:1003600041F29000C4F2020050F8381CC90005D4D4
:1003700050F8381C41F0805140F8381C47F2000119
:10038000C4F2000150F8382C0A68D20507D40A6874
:1003900042F480720A6000BF0A68D205FCD5016889
:1003A00021F005010160016841F4803101600168BC
:1003B00021F4803101600168890703D4016841F0AC
:1003C0000101F7E7016821F440710160016841F41F
:1003D00080710160016841F40041016050F8381CEF
:1003E00021F0805140F8381C50F8381C41F400715D
:1003F00040F8381C7047000042F20440C4F200008C
:1004000050F8041C21F0010140F8041C016841F47B
:1004100070110160016821F070710160016821F4C0
:1004200040310160016821F460410160016841F4DC
:1004300080410160016841F070010160016821F4B0
:10044000E0510160016841F4E0510160016821F070
:1004500070010160016841F0400101604168890656
:10046000FCD550F8041C21F01C0140F8041C50F885
:10047000041C41F00C0140F8041C50F8041C21F04D
:10048000600140F8041C50F8041C41F0400140F8A1
:10049000041C50F8041C21F0800140F8041C50F8A2
:1004A000041C21F0020140F8041C50F8041C41F027
:1004B000010140F8041C00BF4168C907FCD000BF1F
:1004C0004168C906FCD5416841F0040141607047AC
:1004D0002DE9F04381B08046007808B3002700BFC3
:1004E000444614F8019FFDB2A9F13A00B0FA80F039
:1004F0004209A9F12E00B0FA80F046094046314683
:100500002B4600F0E7F8B9F13A0F08BF08F10204F2
:10051000A05D28B104EB0608052D07F10107DFD324
:1005200001B0BDE8F083000010B542F20844C4F207
:10053000000400F017F8FFF713FFFFF75DFF00BF9F
:1005400020684007FCD404F108001021002200BFFD
:10055000013940F8042FFBD1206840F004002060EE
:1005600010BD0000B0B541F24C00C4F202000168B9
:1005700040F6FF7241F00F0101604FF090400168BA
:10058000C3F6C0721140016001684AF2000CC8F263
:100590002A0C41EA0C0101600821C4F600018869B7
:1005A00040F6BB3340F03B408861C869CBF20003A2
:1005B0001843C861086840F60A2E104008600868B1
:1005C000CAF6082E40EA0C00086048684FF2F00CAA
:1005D00010404860D1F8F803C0F2F30C00EA0C00B8
:1005E000C1F8F803D1F8F8034FF6204240EA0E00B4
:1005F000C1F8F80340F60000CFF6FF72C4F6000021
:100600008358B02543F0BB1383504FF62443CFF6F5
:10061000FF73C458CBF6BB352C43C450D1F800440B
:1006200004EA0C04C1F80044D1F8004444EA0E0581
:10063000C1F800544FF60C41CFF6FF71455805EA5A
:100640000C05455001684AF6802C6FF3911101604A
:100650000168C0F2020C41EA0C01016040F6004161
:10066000C4F600018C584BF20005CBF6BB35254390
:100670008D50CA5842F00B02CA5082686FF3911233
:100680008260826842EA0C028260C2686FF3911253
:10069000C2600868002280B208600868CAF6AA2210
:1006A00010430860086A086240F62440C4F600005F
:1006B000036843F0BB33036088684FF6FF739843C9
:1006C0008860886810438860C8686FF30F00C8604E
:1006D000B0BD000070B581B090F800C0ACF120044E
:1006E000DF2C00F291830FF20A004FF0000EDFE8DA
:1006F00014F0E8008B038B038B038B0360038B03E5
:100700008B0363036603690370038B0373038B031B
:100710007603E000E000E000E000E000E000E00040
:10072000E000E000E0008B038B038B038B038B0363
:100730008B038B038B038B038B038B038B038B0349
:100740008B038B038B038B038B038B038B038B0339
:100750008B038B038B038B038B038B038B038B0329
:100760008B038B038B038B038B038B038B038B0319
:100770008B038B038B038B038B0379038B038B031B
:100780008B038B038B038B038B038B037C037F0314
:100790008B038B038B038B038B038B038B038B03E9
:1007A0008B038B038B038B038B038B038B038B03D9
:1007B0008B038B038B038B038B038B038B038B03C9
:1007C0008B038B038B038B038B038B038B038B03B9
:1007D0008B038B038B038B038B038B038B038B03A9
:1007E0008B038B038B038B038B038B038B038B0399
:1007F0008B038B038B038B038B038B038B038B0389
:100800008B038B038B038B038B038B038B038B0378
:100810008B0382038B038B038B038B0385038B0377
:100820008B038B038B038B038B038B038B038B0358
:100830008B038B038B038B038B038B038B038B0348
:100840008B038B038B038B038B038B038B038B0338
:100850008B038B038B038B038B038B038B038B0328
:100860008B038B038B038B038B038B038B038B0318
:100870008B038B038B038B038B038B038B038B0308
:100880008B038B038B038B038B038B038B038B03F8
:100890008B038B038B038B038B038B038B038B03E8
:1008A0008B038B038B038B038B038B038B038B03D8
:1008B000880341F20620C0F6000000EB4C0030F83F
:1008C00060EC002918BF4EF0020E002A18BF4EF04F
:1008D000200E1FFA8EF00C210022EC466FF0030E62
:1008E000CCB220FA04F404F00F040CF802400132F8
:1008F000042A5EFA81F1F3D142F21440C4F20000FE
:1009000050F80C1C4907FBD4052B00F24A82DFE8A3
:1009100013F006006200C20022018701F80101689D
:100920004FF6E772CFF63F721140016081681140C7
:1009300081600169114001618169114081619DF807
:1009400000209DF801309DF802409DF803100668D4
:1009500002F0010C02F0020E02F0040502F008029F
:10096000324342EA8E5242EA0C1242EA05520260D7
:10097000826803F0010C03F0020603F0040503F0A3
:1009800008031A4342EA865242EA0C1242EA05522E
:100990008260056904F0010204F0020304F0040619
:1009A00004F00804254345EA835343EA021242EA6D
:1009B00006520261856901F0010201F0020301F0B3
:1009C000040601F00801294341EA835141EA02117A
:1009D00041EA0651E4E101684CF69F72CFF6FF72DE
:1009E000114001608168114081600169114001611D
:1009F0008169114081619DF800209DF801309DF8CA
:100A000002609DF80310056802F0020402F0010C78
:100A100045EA043402F0040E44EA8C1502F00802A0
:100A200045EA8E2545EA82020260826803F00205EB
:100A300003F0010C42EA053203F0040442EA8C128E
:100A400003F0080342EA842242EA830282600469D6
:100A500006F0020306F0010244EA033306F004053F
:100A600043EA821206F0080642EA852242EA86023A
:100A70000261856901F0020301F0010245EA0333D6
:100A800001F0040643EA821201F0080142EA8622DC
:100A900042EA810184E1016843F6FF72CCF6FF72FD
:100AA000114001608168114081600169114001615C
:100AB0008169114081619DF800309DF80160DD037E
:100AC0009DF802209DF803101FFA85FC056803F0CD
:100AD000020445EA047403F0040E44EA0C0503F032
:100AE000080345EA8E6545EAC3230360F3031FFA52
:100AF00083FC836806F0020543EA057306F00404EC
:100B000043EA0C0306F0080643EA846343EAC6237B
:100B100083600469D30302F002069BB244EA0676BE
:100B200002F00405334302F0080243EA856343EA16
:100B3000C22202618569CA0301F0020392B245EA4A
:100B4000037301F004061A4301F0080142EA8662C9
:100B500042EAC12124E1016821F04041016041687D
:100B600021F003014160816821F040418160C1684A
:100B700021F00301C160016921F040410161416937
:100B800021F003014161816921F040418161C16926
:100B900021F00301C1619DF800204FF0804101EA7E
:100BA000C263066843EAC2733343036002F0020380
:100BB000C2F3800246681A44324342609DF8012025
:100BC000866801EAC26343EAC2733343836002F07A
:100BD0000203C2F38002C6681A443243C2609DF821
:100BE0000220066901EAC26343EAC2733343036128
:100BF00002F00203C2F3800246691A4432434261A2
:100C00009DF80320836901EAC26141EAC271194378
:100C1000816102F00201C2F38002C36911446DE0F8
:100C2000016821F040710160416821F00C014160D0
:100C3000816821F040718160C16821F00C01C160C0
:100C4000016921F040710161416921F00C014161AC
:100C5000816921F040718161C16921F00C01C1619C
:100C60009DF80020036802F0040602F0020143EA46
:100C7000865343EA01610160042101EA5203466898
:100C800062F3C30343EA060242609DF801208668CE
:100C900002F0040502F0020346EA855646EA0363C1
:100CA000836001EA5203C66862F3C30343EA0602A3
:100CB000C2609DF80220066902F0040502F00203FA
:100CC00046EA855646EA0363036101EA5203466930
:100CD00062F3C30343EA060242619DF8032086697A
:100CE00002F0040502F0020346EA855646EA036371
:100CF000836101EA5201C36962F3C3011943C1610F
:100D00004FE001684FF6FF42CFF6FD32114001601F
:100D10008168114081600169114001618169114060
:100D200081619DF800109DF801209DF802309DF82A
:100D30000360056801F0060401F0010C45EAC415E2
:100D400001F0080145EA4C4545EAC151016084685B
:100D500002F0060502F0010144EAC51502F008029E
:100D600045EA414141EAC2518160056903F006024A
:100D700003F0010145EAC21203F0080342EA4141CF
:100D800041EAC3510161836906F0060206F00101E0
:100D900043EAC21206F0080642EA414141EAC6515E
:100DA000816150F80C1C41F0040140F80C1C01B0AA
:100DB00070BD4FF4334E84E54FF0280E81E54FF0BF
:100DC000110E7EE54AF21400CFF6FF7000F1C90E55
:100DD00077E54AF2140E74E54FF4204E71E54FF0BA
:100DE000C00E6EE54FF4734E6BE54BF2102E68E5C6
:100DF00042F2102E65E54FF46C4E62E546F2840E29
:100E00005FE54FF6DD7E5CE5ACF14100192808D8BE
:100E100041F2D210C0F6000000EB4C0030F882EC3A
:100E200001E04FF0000EACF1610019283FF649AD2A
:100E300041F2D210C0F6000000EB4C0030F8C2ECDA
:100E40003FE5000042F20001C4F20201086820F010
:100E5000070008600A6841F2000042F00202C4F292
:100E600002000A60016841F480710160016849056F
:100E7000FCD5416821F0F8514160416841F0805152
:100E80004160016821F08071016000BF0168890143
:100E9000FCD4C168142221F00301C160C16841F093
:100EA0000201C160C16862F30E21C160C168012204
:100EB00062F30611C160C16821F0C061C160C16800
:100EC00041F08071C160016841F08071016000BF34
:100ED00001688901FCD5816821F003018160816886
:100EE00041F00301816000BF816801F00C010C2911
:100EF000FAD1816821F0F0018160816821F4E0611C
:100F00008160816821F460518160016821F0806115
:100F1000016000BF01684901FCD4016921F4FE4170
:100F20000161016941F4C0510161016941F400317D
:100F30000161016941F480310161016841F0806122
:100F4000016000BF01684901FCD5D0F8881021F488
:100F50004001C0F88810016E41F40011016670472D
:100F60001024C4F60004FFF76DFF41F24C05C4F2F3
:100F70000205286845F2500240F00200286040F661
:100F80000F70CFF6FF70C4F8F003D4F8F0131143DC
:100F9000C4F8F013D4F8F8134AF2A0020140C4F8E0
:100FA000F813D4F8F8131143C4F8F813D4F8F41371
:100FB00021F0CC01C4F8F413D4F8FC130840C4F8B1
:100FC000FC03FFF7B1FAFFF7B7F928684FF20032D8
:100FD00040F0010028604FF090400168CFF6FF72AA
:100FE0001140016054F8040C40F6AA01104044F886
:100FF000040C54F8040C0FF2B81808436AA568A64C
:1010000065A744F8040C00BFFFF796F92068800735
:101010005AD53846FFF75CFA002002E00130042878
:10102000F4D04EF6602103E00139C4F80424F5D071
:10103000D4F80424032822F0CC02F5D8DFE800F02D
:1010400005080C0242F08802EEE742F08402EBE76A
:1010500042F04402E8E700BF42F04802E4E700BF84
:101060003046FFF735FA002003E000BF01300828C2
:101070002AD04EF6602103E00139C4F80424F5D0EB
:10108000D4F80424072822F0CC02F5D8DFE800F0D9
:10109000070A0D101316190442F08802ECE742F01B
:1010A0008002E9E742F08402E6E742F00402E3E767
:1010B00042F04402E0E742F04002DDE742F048023D
:1010C000DAE742F00802D7E720684007C8D427E0F3
:1010D0002846FFF7FDF9002003E000BF0130042897
:1010E0001ED04EF6602103E00139C4F80424F5D087
:1010F000D4F80424032822F0CC02F5D8DFE800F06D
:1011000005080C0242F08402EEE742F08802EBE7A9
:1011100042F04802E8E700BF42F04402E4E700BFC3
:1011200020680007D4D433E04046FFF7D1F900200F
:1011300003E000BF013008282AD04EF6602103E00A
:101140000139C4F80424F5D0D4F80424072822F087
:10115000CC02F5D8DFE800F0070A0D1013161904C9
:1011600042F08002ECE742F08802E9E742F0080230
:10117000E6E742F04802E3E742F04002E0E742F0EF
:101180004402DDE742F00402DAE742F08402D7E7E6
:1011900020688006C8D437E743204653000000008B
:1011A0004320485300000000434320465300000002
:1011B0004343204853000000F1EE100A4FF6FF7140
:1011C000C0F2C03120EA010040F04070E1EE100AA8
:1011D000704700FE1467001D1447009D009C003FEF
:1011E00000FA1400005341980019485A095A005F48
:1011F00000FC015F01FC00AF1404005BC018815AC1
:10120000C9005800C005005F004200F5006700EA11
:1012100000AF00BF004600FF00EF00002C120008E6
:0C1220000000002060060000F001000843
:040000050800018965
:00000001FF
