:020000040800F2
:100000006006002039020008750200087702000827
:10001000790200087B0200087D0200080000000051
:100020000000000000000000000000007F02000847
:100030008102000800000000830200088502000819
:10004000870200088702000887020008870200086C
:10005000870200088702000887020008870200085C
:10006000870200088702000887020008870200084C
:10007000870200088702000887020008870200083C
:10008000870200088702000887020008870200082C
:10009000870200088702000887020008870200081C
:1000A000870200088702000887020008870200080C
:1000B00087020008870200088702000887020008FC
:1000C00087020008870200088702000887020008EC
:1000D00087020008870200088702000887020008DC
:1000E00087020008870200088702000887020008CC
:1000F00087020008870200088702000887020008BC
:1001000087020008870200088702000887020008AB
:10011000870200088702000887020008870200089B
:10012000870200088702000887020008870200088B
:10013000870200088702000887020008870200087B
:10014000870200088702000887020008870200086B
:10015000870200088702000887020008870200085B
:10016000870200088702000887020008870200084B
:1001700087020008870200088702000800000000CC
:10018000870200088702000800F002F800F044F837
:1001900014A696E8000CB244B344DA4501D100F04D
:1001A0003BF8BAE80F000FA696E83000A5EB04056F
:1001B00004EB0607AAEB0704A7F101074FEA1515A0
:1001C0004FEA3414A4F10104AC4201D300F024F846
:1001D00013F0010F18BFFB1A43F0010300F001F800
:1001E000DBE71847F40E0000040F00007047000022
:1001F0000023002400250026103A28BF78C1FBD830
:10020000520728BF30C148BF0B6070471FB500F0D0
:1002100021FF1FBD10B510BD00F09CF81146FFF77F
:10022000F5FF00F073FE00F0BAF803B4FFF7F2FF39
:1002300003BC00F0C1F8000016481749174B99425B
:100240003CBF50F8042B41F8042BF8D314494FF06D
:1002500000028B4238BF43F8042BFAD3DFF8440086
:10026000016841F470010160BFF34F8FBFF36F8FDE
:100270000D480047FEE7FEE7FEE7FEE7FEE7FEE784
:10028000FEE7FEE7FEE7FEE708480949094A0A4B90
:1002900070470000E8100008000000200000002067
:1002A0006006002088ED00E0890100086000002061
:1002B0006006002060020020600200204FF0000273
:1002C0000429C0F0128010F0030C00F01E80CCF165
:1002D000040CBCF1020F18BF00F8012BA8BF20F8D6
:1002E000022BA1EB0C0100F010B85FEAC17C24BF27
:1002F00000F8012B00F8012B48BF00F8012B7047D4
:100300007047704770474FF0000200B5134694469F
:100310009646203922BFA0E80C50A0E80C50B1F15D
:100320002001BFF4F7AF090728BFA0E80C5048BF71
:100330000CC05DF804EB890028BF40F8042B08BF0F
:10034000704748BF20F8022B11F0804F18BF00F80B
:10035000012B7047754600F02BF8AE460500694644
:10036000534620F00700854618B020B5FFF78CFFF4
:10037000BDE820404FF000064FF000074FF00008A6
:100380004FF0000BAC46ACE8C009ACE8C009ACE8E3
:10039000C009ACE8C00921F007018D46704710B5CF
:1003A0000446AFF300802046BDE81040FFF73DBF94
:1003B000004870470000002001491820ABBEFEE74E
:1003C000260002007047000042F20840C4F200001C
:1003D00001684907FCD46FF003010022431804317F
:1003E0003C291A61FAD1016841F0040101607047AB
:1003F00041F29000C4F2020050F8381CC90005D444
:1004000050F8381C41F0805140F8381C47F2000188
:10041000C4F2000150F8382C0A68D20507D40A68E3
:1004200042F480720A6000BF0A68D205FCD50168F8
:1004300021F005010160016841F48031016001682B
:1004400021F4803101600168890703D4016841F01B
:100450000101F7E7016821F440710160016841F48E
:100460008071016050F8381C21F0805140F8381C30
:1004700050F8381C41F4007140F8381C70470000F7
:1004800070B50025ECB2002100222346461C00F086
:1004900005F90135052C3046F4D370BD10B542F294
:1004A0000044C4F2000400F049F8FFF7A1FF2068FF
:1004B00020F001002060206820F0600020602068AB
:1004C00040F040002060206820F01C002060206880
:1004D00040F00C002060606840F4E05060606068AC
:1004E00040F070006060206820F08000206020688C
:1004F00020F00200206000BFA0688006FCD52068C4
:1005000040F00100206000BFA068C007FCD000BF21
:10051000A068C006FCD500BFA0684007FCD404F169
:1005200010001021002200BF013940F8042FFBD138
:10053000A06840F00400A06010BD000041F24C0033
:10054000C4F20200016840F6FF7241F0010101604F
:100550000168C3F6C07241F002010160016841F018
:1005600004010160016841F0080101604FF0904012
:1005700001681140016001684AF20002C8F22A02D3
:10058000114320220160C4F60002D2F8E0034FF2CA
:10059000F001C0F2F3010840C2F8E003D2F8E00332
:1005A00040F60A21CAF60821084340F22441C2F865
:1005B000E003C4F60001D1F8DC036FF39110C1F839
:1005C000DC03D1F8DC0340F4203040F42A50C1F8B9
:1005D000DC0340F60040C4F6000003689BB20360F1
:1005E000036843F02A4343F42A030360136823F0AB
:1005F0007F431360136843F03B431360D2F804C099
:100600004FF20003C0F6FF7303EA0C035360D2F805
:1006100004C040F6BB33CBF2000343EA0C03536043
:10062000D2F8003423F0FF13C2F80034D2F80034BB
:1006300043F0BB13C2F800340A684FF60F731A4038
:100640000A600A68B023CBF6BB331A430A60D1F8BC
:10065000FC234BF200036FF31F32C1F8FC23D1F8E7
:10066000FC23CBF6BB331A43C1F8FC23D1F800249A
:1006700022F00F02C1F80024D1F8002442F00B024E
:10068000C1F80024016A0162016A0162416A002125
:100690004162416A41F0BB314162704770B581B03F
:1006A00090F800C0ACF12004DF2C00F291830FF22F
:1006B0000A004FF0000EDFE814F0E8008B038B0314
:1006C0008B038B0360038B038B0363036603690354
:1006D00070038B0373038B037603E000E000E000FC
:1006E000E000E000E000E000E000E000E0008B035C
:1006F0008B038B038B038B038B038B038B038B038A
:100700008B038B038B038B038B038B038B038B0379
:100710008B038B038B038B038B038B038B038B0369
:100720008B038B038B038B038B038B038B038B0359
:100730008B038B038B038B038B038B038B038B0349
:100740008B0379038B038B038B038B038B038B034B
:100750008B038B037C037F038B038B038B038B0344
:100760008B038B038B038B038B038B038B038B0319
:100770008B038B038B038B038B038B038B038B0309
:100780008B038B038B038B038B038B038B038B03F9
:100790008B038B038B038B038B038B038B038B03E9
:1007A0008B038B038B038B038B038B038B038B03D9
:1007B0008B038B038B038B038B038B038B038B03C9
:1007C0008B038B038B038B038B038B038B038B03B9
:1007D0008B038B038B038B038B0382038B038B03B2
:1007E0008B038B0385038B038B038B038B038B039F
:1007F0008B038B038B038B038B038B038B038B0389
:100800008B038B038B038B038B038B038B038B0378
:100810008B038B038B038B038B038B038B038B0368
:100820008B038B038B038B038B038B038B038B0358
:100830008B038B038B038B038B038B038B038B0348
:100840008B038B038B038B038B038B038B038B0338
:100850008B038B038B038B038B038B038B038B0328
:100860008B038B038B038B038B038B038B038B0318
:100870008B038B038B038B03880341F2A200C0F62A
:10088000000000EB4C0030F860EC002918BF4EF07F
:10089000020E002A18BF4EF0200E1FFA8EF00C2117
:1008A0000022EC466FF0030ECCB220FA04F404F000
:1008B0000F040CF802400132042A5EFA81F1F3D1F0
:1008C00042F21440C4F2000050F80C1C4907FBD45B
:1008D000052B00F24A82DFE813F006006200C20036
:1008E00022018701F80101684FF6E772CFF63F72E7
:1008F000114001608168114081600169114001610E
:100900008169114081619DF800209DF801309DF8BA
:1009100002409DF80310066802F0010C02F0020E7E
:1009200002F0040502F00802324342EA8E5242EA23
:100930000C1242EA05520260826803F0010C03F0D7
:10094000020603F0040503F008031A4342EA865244
:1009500042EA0C1242EA05528260056904F0010283
:1009600004F0020304F0040604F00804254345EAF9
:10097000835343EA021242EA06520261856901F09A
:10098000010201F0020301F0040601F0080129430D
:1009900041EA835141EA021141EA0651E4E101686A
:1009A0004CF69F72CFF6FF721140016081681140D2
:1009B00081600169114001618169114081619DF887
:1009C00000209DF801309DF802609DF80310056835
:1009D00002F0020402F0010C45EA043402F0040EB5
:1009E00044EA8C1502F0080245EA8E2545EA8202A7
:1009F0000260826803F0020503F0010C42EA05324E
:100A000003F0040442EA8C1203F0080342EA842251
:100A100042EA83028260046906F0020306F00102E2
:100A200044EA033306F0040543EA821206F008069E
:100A300042EA852242EA86020261856901F00203E8
:100A400001F0010245EA033301F0040643EA821291
:100A500001F0080142EA862242EA810184E101684C
:100A600043F6FF72CCF6FF721140016081681140BD
:100A700081600169114001618169114081619DF8C6
:100A800000309DF80160DD039DF802209DF8031001
:100A90001FFA85FC056803F0020445EA047403F0BC
:100AA000040E44EA0C0503F0080345EA8E6545EAA6
:100AB000C3230360F3031FFA83FC836806F0020577
:100AC00043EA057306F0040443EA0C0306F0080643
:100AD00043EA846343EAC62383600469D30302F0D4
:100AE00002069BB244EA067602F00405334302F0A4
:100AF000080243EA856343EAC22202618569CA03A8
:100B000001F0020392B245EA037301F004061A43AE
:100B100001F0080142EA866242EAC12124E101684B
:100B200021F040410160416821F00301416081688A
:100B300021F040418160C16821F00301C160016979
:100B400021F040410161416921F003014161816966
:100B500021F040418161C16921F00301C1619DF82B
:100B600000204FF0804101EAC263066843EAC27385
:100B70003343036002F00203C2F3800246681A4462
:100B8000324342609DF80120866801EAC26343EA6D
:100B9000C2733343836002F00203C2F38002C6686B
:100BA0001A443243C2609DF80220066901EAC2631A
:100BB00043EAC2733343036102F00203C2F38002CB
:100BC00046691A44324342619DF80320836901EA71
:100BD000C26141EAC2711943816102F00201C2F3AC
:100BE0008002C36911446DE0016821F04071016029
:100BF000416821F00C014160816821F04071816001
:100C0000C16821F00C01C160016921F040710161EE
:100C1000416921F00C014161816921F040718161DC
:100C2000C16921F00C01C1619DF80020036802F048
:100C3000040602F0020143EA865343EA01610160BF
:100C4000042101EA5203466862F3C30343EA060241
:100C500042609DF80120866802F0040502F002035C
:100C600046EA855646EA0363836001EA5203C66892
:100C700062F3C30343EA0602C2609DF802200669DC
:100C800002F0040502F0020346EA855646EA0363D1
:100C9000036101EA5203466962F3C30343EA0602B1
:100CA00042619DF80320866902F0040502F0020308
:100CB00046EA855646EA0363836101EA5201C36945
:100CC00062F3C3011943C1614FE001684FF6FF426F
:100CD000CFF6FD32114001608168114081600169E9
:100CE000114001618169114081619DF800109DF8FA
:100CF00001209DF802309DF80360056801F00604AC
:100D000001F0010C45EAC41501F0080145EA4C4523
:100D100045EAC1510160846802F0060502F0010154
:100D200044EAC51502F0080245EA414141EAC251D0
:100D30008160056903F0060203F0010145EAC21271
:100D400003F0080342EA414141EAC351016183696A
:100D500006F0060206F0010143EAC21206F0080698
:100D600042EA414141EAC651816150F80C1C41F010
:100D7000040140F80C1C01B070BD4FF4334E84E503
:100D80004FF0280E81E54FF0110E7EE54AF2140077
:100D9000CFF6FF7000F1C90E77E54AF2140E74E544
:100DA0004FF4204E71E54FF0C00E6EE54FF4734ED8
:100DB0006BE54BF2102E68E542F2102E65E54FF41C
:100DC0006C4E62E546F2840E5FE54FF6DD7E5CE533
:100DD000ACF14100192808D841F26E00C0F60000BD
:100DE00000EB4C0030F882EC01E04FF0000EACF16B
:100DF000610019283FF649AD41F26E00C0F60000CF
:100E000000EB4C0030F8C2EC3FE50000F0B541F2D9
:100E1000140CC4F6000CDCF80000102240F2024E64
:100E200020F47050C4F60002C2F2080ECCF80000A4
:100E300000214FF4FF6005E0E4B2052C29D2013116
:100E4000042959D0CBB2032B0AD800EAC104156893
:100E50002EFA04F42C40E4B2002CF0D103E000BFE1
:100E6000FF24002CEBD100EAC1042EFA04F5002483
:100E700000260AE0176817682F40FFB2002F08BF4E
:100E80000134092E06F10106D6D2032BF2D9FF2731
:100E9000F4E74FF4FF6000EAC10041F2C8042EFA03
:100EA00000FE0020C0F6000407E000BFFF2505B3E8
:100EB0000130042801F104011ED0DCF8005010F0CC
:100EC000FC0F45F47055CCF8005003D0032BEDD83F
:100ED00009E000BF54F82050DCF800603540CCF841
:100EE0000050032BE2D8156805EA0E05EDB2002D7F
:100EF000DED1DCF8000002E0DCF80000FF2120F485
:100F00007050CCF8000048B2F0BD00008EB041F245
:100F10000804C4F2020454F8080C40F4807044F849
:100F2000080C00BF54F8080C4005FBD5206820F0E1
:100F300003002060206840F001002060206810F06D
:100F40000C0FFBD0FFF7AAFAFFF73EFA606C4FF2E6
:100F5000033240F010006064606CCFF6FF7240F026
:100F60000100606441F20000C4F6000001680DF168
:100F7000060921F07F6101600168A9F1060B41F0CB
:100F8000AA610160C1684FF0300821F07F61C16043
:100F900041684C4641F4705141604FF09040016807
:100FA0000026114001600168002501600C20C4F694
:100FB0000000016811400160FFF728FF411CFBD0D1
:100FC0000F280DD94FF0FF0ABAF1500F11D04FFA88
:100FD0008AF02A2811D1002004F8010DFF2010E02A
:100FE00041F2B801C0F6000111F800A0BAF1500FAB
:100FF000EDD104F8018B012003E004F801AB0120DE
:10100000D0460644F0B20728484628BF5BFA86F06F
:10101000FFF736FAFFF7FAFE0130CDD0AAF12A0029
:10102000B0FA80F047090BE0A4EB09014846FFF74E
:1010300045F900264C460025FFF7E8FE0130BBD0FD
:101040003D44E8B26528F7D3FFF7BEF9A145EBD1DF
:101050000026F0E7F1EE100A4FF6FF71C0F2C03142
:1010600020EA010040F04070E1EE100A704700FEF7
:101070001467001D1447009D009C003F00FA1400F7
:10108000005341980019485A095A005F00FC015F5B
:1010900001FC00AF1404005BC018815AC90058005D
:1010A000C005005F004200F5006700EA00AF00BF26
:1010B000004600FF00EF0000313233413435364244
:1010C000373839432A305044FFFBFFFFFFF7FFFF5B
:1010D000FFEFFFFFFFDFFFFFE81000080000002028
:0810E00060060000F0010008A9
:040000050800018965
:00000001FF
